Component: ARM Compiler 5.06 update 3 (build 300) Tool: armlink [4d35c9]

==============================================================================

Section Cross References

    startup_stm32f103xb.o(RESET) refers to startup_stm32f103xb.o(STACK) for __initial_sp
    startup_stm32f103xb.o(RESET) refers to startup_stm32f103xb.o(.text) for Reset_Handler
    startup_stm32f103xb.o(RESET) refers to stm32f1xx_it.o(i.NMI_Handler) for NMI_Handler
    startup_stm32f103xb.o(RESET) refers to stm32f1xx_it.o(i.HardFault_Handler) for HardFault_Handler
    startup_stm32f103xb.o(RESET) refers to stm32f1xx_it.o(i.MemManage_Handler) for MemManage_Handler
    startup_stm32f103xb.o(RESET) refers to stm32f1xx_it.o(i.BusFault_Handler) for BusFault_Handler
    startup_stm32f103xb.o(RESET) refers to stm32f1xx_it.o(i.UsageFault_Handler) for UsageFault_Handler
    startup_stm32f103xb.o(RESET) refers to stm32f1xx_it.o(i.SVC_Handler) for SVC_Handler
    startup_stm32f103xb.o(RESET) refers to stm32f1xx_it.o(i.DebugMon_Handler) for DebugMon_Handler
    startup_stm32f103xb.o(RESET) refers to stm32f1xx_it.o(i.PendSV_Handler) for PendSV_Handler
    startup_stm32f103xb.o(RESET) refers to stm32f1xx_it.o(i.SysTick_Handler) for SysTick_Handler
    startup_stm32f103xb.o(.text) refers to system_stm32f1xx.o(i.SystemInit) for SystemInit
    startup_stm32f103xb.o(.text) refers to entry.o(.ARM.Collect$$$$00000000) for __main
    main.o(i.SystemClock_Config) refers to memseta.o(.text) for __aeabi_memclr4
    main.o(i.SystemClock_Config) refers to stm32f1xx_hal_rcc.o(i.HAL_RCC_OscConfig) for HAL_RCC_OscConfig
    main.o(i.SystemClock_Config) refers to stm32f1xx_hal_rcc.o(i.HAL_RCC_ClockConfig) for HAL_RCC_ClockConfig
    main.o(i.fputc) refers to usart.o(.bss) for huart1
    main.o(i.main) refers to stm32f1xx_hal.o(i.HAL_Init) for HAL_Init
==============================================================================

Removing Unused input sections from the image.

    Removing startup_stm32f103xb.o(HEAP), (512 bytes).
    Removing main.o(.rev16_text), (4 bytes).
    Removing main.o(.revsh_text), (4 bytes).
    Removing main.o(.rrx_text), (6 bytes).
    Removing gpio.o(.rev16_text), (4 bytes).
    Removing gpio.o(.revsh_text), (4 bytes).
    Removing gpio.o(.rrx_text), (6 bytes).
    Removing usart.o(.rev16_text), (4 bytes).
    Removing usart.o(.revsh_text), (4 bytes).
    Removing usart.o(.rrx_text), (6 bytes).
    Removing usart.o(i.HAL_UART_MspDeInit), (44 bytes).
    Removing stm32f1xx_it.o(.rev16_text), (4 bytes).
    Removing stm32f1xx_it.o(.revsh_text), (4 bytes).
    Removing stm32f1xx_it.o(.rrx_text), (6 bytes).
    Removing stm32f1xx_hal_msp.o(.rev16_text), (4 bytes).
    Removing stm32f1xx_hal_msp.o(.revsh_text), (4 bytes).
    Removing stm32f1xx_hal_msp.o(.rrx_text), (6 bytes).
    Removing stm32f1xx_hal_gpio_ex.o(.rev16_text), (4 bytes).
==============================================================================

Image Symbol Table

    Local Symbols

    Symbol Name                              Value     Ov Type        Size  Object(Section)

    ../Core/Src/gpio.c                       0x00000000   Number         0  gpio.o ABSOLUTE
    ../Core/Src/main.c                       0x00000000   Number         0  main.o ABSOLUTE
    ../Core/Src/stm32f1xx_hal_msp.c          0x00000000   Number         0  stm32f1xx_hal_msp.o ABSOLUTE
    ../Core/Src/stm32f1xx_it.c               0x00000000   Number         0  stm32f1xx_it.o ABSOLUTE
    ../Core/Src/system_stm32f1xx.c           0x00000000   Number         0  system_stm32f1xx.o ABSOLUTE
    ../Core/Src/usart.c                      0x00000000   Number         0  usart.o ABSOLUTE
    ../Drivers/STM32F1xx_HAL_Driver/Src/stm32f1xx_hal.c 0x00000000   Number         0  stm32f1xx_hal.o ABSOLUTE
    ../Drivers/STM32F1xx_HAL_Driver/Src/stm32f1xx_hal_cortex.c 0x00000000   Number         0  stm32f1xx_hal_cortex.o ABSOLUTE
    ../Drivers/STM32F1xx_HAL_Driver/Src/stm32f1xx_hal_dma.c 0x00000000   Number         0  stm32f1xx_hal_dma.o ABSOLUTE
    ../Drivers/STM32F1xx_HAL_Driver/Src/stm32f1xx_hal_exti.c 0x00000000   Number         0  stm32f1xx_hal_exti.o ABSOLUTE
    ../Drivers/STM32F1xx_HAL_Driver/Src/stm32f1xx_hal_flash.c 0x00000000   Number         0  stm32f1xx_hal_flash.o ABSOLUTE
    ../Drivers/STM32F1xx_HAL_Driver/Src/stm32f1xx_hal_flash_ex.c 0x00000000   Number         0  stm32f1xx_hal_flash_ex.o ABSOLUTE
    ../Drivers/STM32F1xx_HAL_Driver/Src/stm32f1xx_hal_gpio.c 0x00000000   Number         0  stm32f1xx_hal_gpio.o ABSOLUTE
    ../Drivers/STM32F1xx_HAL_Driver/Src/stm32f1xx_hal_gpio_ex.c 0x00000000   Number         0  stm32f1xx_hal_gpio_ex.o ABSOLUTE
    ../Drivers/STM32F1xx_HAL_Driver/Src/stm32f1xx_hal_pwr.c 0x00000000   Number         0  stm32f1xx_hal_pwr.o ABSOLUTE
    ../Drivers/STM32F1xx_HAL_Driver/Src/stm32f1xx_hal_rcc.c 0x00000000   Number         0  stm32f1xx_hal_rcc.o ABSOLUTE
    ../Drivers/STM32F1xx_HAL_Driver/Src/stm32f1xx_hal_rcc_ex.c 0x00000000   Number         0  stm32f1xx_hal_rcc_ex.o ABSOLUTE
    ../Drivers/STM32F1xx_HAL_Driver/Src/stm32f1xx_hal_tim.c 0x00000000   Number         0  stm32f1xx_hal_tim.o ABSOLUTE
    ../Drivers/STM32F1xx_HAL_Driver/Src/stm32f1xx_hal_tim_ex.c 0x00000000   Number         0  stm32f1xx_hal_tim_ex.o ABSOLUTE
    ../Drivers/STM32F1xx_HAL_Driver/Src/stm32f1xx_hal_uart.c 0x00000000   Number         0  stm32f1xx_hal_uart.o ABSOLUTE
    ../clib/microlib/division.c              0x00000000   Number         0  uidiv.o ABSOLUTE
    ../clib/microlib/division.c              0x00000000   Number         0  uldiv.o ABSOLUTE
    ../clib/microlib/init/entry.s            0x00000000   Number         0  entry.o ABSOLUTE
    ../clib/microlib/init/entry.s            0x00000000   Number         0  entry11b.o ABSOLUTE
    ../clib/microlib/init/entry.s            0x00000000   Number         0  entry2.o ABSOLUTE
    ../clib/microlib/init/entry.s            0x00000000   Number         0  entry11a.o ABSOLUTE
    ../clib/microlib/init/entry.s            0x00000000   Number         0  entry10b.o ABSOLUTE
    ../clib/microlib/init/entry.s            0x00000000   Number         0  entry10a.o ABSOLUTE
    ../clib/microlib/init/entry.s            0x00000000   Number         0  entry9b.o ABSOLUTE
    ../clib/microlib/init/entry.s            0x00000000   Number         0  entry8b.o ABSOLUTE
    ../clib/microlib/init/entry.s            0x00000000   Number         0  entry8a.o ABSOLUTE
    ../clib/microlib/init/entry.s            0x00000000   Number         0  entry9a.o ABSOLUTE
    ../clib/microlib/init/entry.s            0x00000000   Number         0  entry7b.o ABSOLUTE
    ../clib/microlib/init/entry.s            0x00000000   Number         0  entry5.o ABSOLUTE
    ../clib/microlib/init/entry.s            0x00000000   Number         0  entry7a.o ABSOLUTE
    ../clib/microlib/longlong.c              0x00000000   Number         0  llushr.o ABSOLUTE
    ../clib/microlib/longlong.c              0x00000000   Number         0  llsshr.o ABSOLUTE
    ../clib/microlib/longlong.c              0x00000000   Number         0  llshl.o ABSOLUTE
    ../clib/microlib/malloc/calloc.c         0x00000000   Number         0  calloc.o ABSOLUTE
    ../clib/microlib/malloc/malloc.c         0x00000000   Number         0  mallocra.o ABSOLUTE
    ../clib/microlib/malloc/malloc.c         0x00000000   Number         0  malloc.o ABSOLUTE
    ../clib/microlib/malloc/malloc.c         0x00000000   Number         0  malloca.o ABSOLUTE
    ../clib/microlib/malloc/malloc.c         0x00000000   Number         0  mallocr.o ABSOLUTE
    ../clib/microlib/malloc/mvars.c          0x00000000   Number         0  mvars.o ABSOLUTE
    ../clib/microlib/printf/printf.c         0x00000000   Number         0  printf8.o ABSOLUTE
    ../clib/microlib/printf/printf.c         0x00000000   Number         0  printf7.o ABSOLUTE
    ../clib/microlib/printf/printf.c         0x00000000   Number         0  printf6.o ABSOLUTE
    ../clib/microlib/printf/printf.c         0x00000000   Number         0  printf3.o ABSOLUTE
    ../clib/microlib/printf/printf.c         0x00000000   Number         0  printf2.o ABSOLUTE
    ../clib/microlib/printf/printf.c         0x00000000   Number         0  printf4.o ABSOLUTE
    ../clib/microlib/printf/printf.c         0x00000000   Number         0  printf1.o ABSOLUTE
    ../clib/microlib/printf/printf.c         0x00000000   Number         0  printf0.o ABSOLUTE
    ../clib/microlib/printf/printf.c         0x00000000   Number         0  printfb.o ABSOLUTE
    ../clib/microlib/printf/printf.c         0x00000000   Number         0  printf5.o ABSOLUTE
    ../clib/microlib/printf/printf.c         0x00000000   Number         0  printfa.o ABSOLUTE
    ../clib/microlib/printf/stubs.s          0x00000000   Number         0  stubs.o ABSOLUTE
    ../clib/microlib/stdio/streams.c         0x00000000   Number         0  stdout.o ABSOLUTE
    ../clib/microlib/string/memcmp.c         0x00000000   Number         0  memcmp.o ABSOLUTE
    ../clib/microlib/string/memcpy.c         0x00000000   Number         0  memmovea.o ABSOLUTE
    ../clib/microlib/string/memcpy.c         0x00000000   Number         0  memcpyb.o ABSOLUTE
    ../clib/microlib/string/memcpy.c         0x00000000   Number         0  memmoveb.o ABSOLUTE
    ../clib/microlib/string/memcpy.c         0x00000000   Number         0  memcpya.o ABSOLUTE
    ../clib/microlib/string/memset.c         0x00000000   Number         0  memset.o ABSOLUTE
    ../clib/microlib/string/memset.c         0x00000000   Number         0  memseta.o ABSOLUTE
    ../clib/microlib/string/strcmp.c         0x00000000   Number         0  strcmp.o ABSOLUTE
    ../clib/microlib/string/strlen.c         0x00000000   Number         0  strlen.o ABSOLUTE
    ../clib/microlib/string/strstr.c         0x00000000   Number         0  strstr.o ABSOLUTE
    ../clib/microlib/stubs.s                 0x00000000   Number         0  iusefp.o ABSOLUTE
    ../fplib/microlib/fpadd.c                0x00000000   Number         0  dadd.o ABSOLUTE
    ../fplib/microlib/fpdiv.c                0x00000000   Number         0  ddiv.o ABSOLUTE
    ../fplib/microlib/fpepilogue.c           0x00000000   Number         0  depilogue.o ABSOLUTE
    ../fplib/microlib/fpfix.c                0x00000000   Number         0  dfixul.o ABSOLUTE
    ../fplib/microlib/fpmul.c                0x00000000   Number         0  dmul.o ABSOLUTE
    ..\Core\Src\gpio.c                       0x00000000   Number         0  gpio.o ABSOLUTE
    ..\Core\Src\main.c                       0x00000000   Number         0  main.o ABSOLUTE
    ..\Core\Src\stm32f1xx_hal_msp.c          0x00000000   Number         0  stm32f1xx_hal_msp.o ABSOLUTE
    ..\Core\Src\stm32f1xx_it.c               0x00000000   Number         0  stm32f1xx_it.o ABSOLUTE
    ..\Core\Src\system_stm32f1xx.c           0x00000000   Number         0  system_stm32f1xx.o ABSOLUTE
    ..\Core\Src\usart.c                      0x00000000   Number         0  usart.o ABSOLUTE
    ..\Drivers\STM32F1xx_HAL_Driver\Src\stm32f1xx_hal.c 0x00000000   Number         0  stm32f1xx_hal.o ABSOLUTE
    ..\Drivers\STM32F1xx_HAL_Driver\Src\stm32f1xx_hal_cortex.c 0x00000000   Number         0  stm32f1xx_hal_cortex.o ABSOLUTE
    ..\Drivers\STM32F1xx_HAL_Driver\Src\stm32f1xx_hal_dma.c 0x00000000   Number         0  stm32f1xx_hal_dma.o ABSOLUTE
    ..\Drivers\STM32F1xx_HAL_Driver\Src\stm32f1xx_hal_exti.c 0x00000000   Number         0  stm32f1xx_hal_exti.o ABSOLUTE
    ..\Drivers\STM32F1xx_HAL_Driver\Src\stm32f1xx_hal_flash.c 0x00000000   Number         0  stm32f1xx_hal_flash.o ABSOLUTE
    ..\Drivers\STM32F1xx_HAL_Driver\Src\stm32f1xx_hal_flash_ex.c 0x00000000   Number         0  stm32f1xx_hal_flash_ex.o ABSOLUTE
    ..\Drivers\STM32F1xx_HAL_Driver\Src\stm32f1xx_hal_gpio.c 0x00000000   Number         0  stm32f1xx_hal_gpio.o ABSOLUTE
    ..\Drivers\STM32F1xx_HAL_Driver\Src\stm32f1xx_hal_gpio_ex.c 0x00000000   Number         0  stm32f1xx_hal_gpio_ex.o ABSOLUTE
    ..\Drivers\STM32F1xx_HAL_Driver\Src\stm32f1xx_hal_pwr.c 0x00000000   Number         0  stm32f1xx_hal_pwr.o ABSOLUTE
    ..\Drivers\STM32F1xx_HAL_Driver\Src\stm32f1xx_hal_rcc.c 0x00000000   Number         0  stm32f1xx_hal_rcc.o ABSOLUTE
    ..\Drivers\STM32F1xx_HAL_Driver\Src\stm32f1xx_hal_rcc_ex.c 0x00000000   Number         0  stm32f1xx_hal_rcc_ex.o ABSOLUTE
    ..\Drivers\STM32F1xx_HAL_Driver\Src\stm32f1xx_hal_tim.c 0x00000000   Number         0  stm32f1xx_hal_tim.o ABSOLUTE
    ..\Drivers\STM32F1xx_HAL_Driver\Src\stm32f1xx_hal_tim_ex.c 0x00000000   Number         0  stm32f1xx_hal_tim_ex.o ABSOLUTE
    ..\Drivers\STM32F1xx_HAL_Driver\Src\stm32f1xx_hal_uart.c 0x00000000   Number         0  stm32f1xx_hal_uart.o ABSOLUTE
    ..\mbedtls\library\aes.c                 0x00000000   Number         0  aes.o ABSOLUTE
    ..\mbedtls\library\aesni.c               0x00000000   Number         0  aesni.o ABSOLUTE
    ..\mbedtls\library\arc4.c                0x00000000   Number         0  arc4.o ABSOLUTE
    ..\mbedtls\library\aria.c                0x00000000   Number         0  aria.o ABSOLUTE
    ..\mbedtls\library\asn1parse.c           0x00000000   Number         0  asn1parse.o ABSOLUTE
    ..\mbedtls\library\asn1write.c           0x00000000   Number         0  asn1write.o ABSOLUTE
    ..\mbedtls\library\base64.c              0x00000000   Number         0  base64.o ABSOLUTE
    ..\mbedtls\library\bignum.c              0x00000000   Number         0  bignum.o ABSOLUTE
    ..\mbedtls\library\blowfish.c            0x00000000   Number         0  blowfish.o ABSOLUTE
    ..\mbedtls\library\camellia.c            0x00000000   Number         0  camellia.o ABSOLUTE
    ..\mbedtls\library\ccm.c                 0x00000000   Number         0  ccm.o ABSOLUTE
    ..\mbedtls\library\certs.c               0x00000000   Number         0  certs.o ABSOLUTE
    ..\mbedtls\library\chacha20.c            0x00000000   Number         0  chacha20.o ABSOLUTE
    ..\mbedtls\library\chachapoly.c          0x00000000   Number         0  chachapoly.o ABSOLUTE
    ..\mbedtls\library\cipher.c              0x00000000   Number         0  cipher.o ABSOLUTE
    ..\mbedtls\library\cipher_wrap.c         0x00000000   Number         0  cipher_wrap.o ABSOLUTE
    ..\mbedtls\library\cmac.c                0x00000000   Number         0  cmac.o ABSOLUTE
    ..\mbedtls\library\ctr_drbg.c            0x00000000   Number         0  ctr_drbg.o ABSOLUTE
    ..\mbedtls\library\debug.c               0x00000000   Number         0  debug.o ABSOLUTE
    ..\mbedtls\library\des.c                 0x00000000   Number         0  des.o ABSOLUTE
    ..\mbedtls\library\dhm.c                 0x00000000   Number         0  dhm.o ABSOLUTE
    ..\mbedtls\library\ecdh.c                0x00000000   Number         0  ecdh.o ABSOLUTE
    ..\mbedtls\library\ecdsa.c               0x00000000   Number         0  ecdsa.o ABSOLUTE
    ..\mbedtls\library\ecjpake.c             0x00000000   Number         0  ecjpake.o ABSOLUTE
    ..\mbedtls\library\ecp.c                 0x00000000   Number         0  ecp.o ABSOLUTE
    ..\mbedtls\library\ecp_curves.c          0x00000000   Number         0  ecp_curves.o ABSOLUTE
    ..\mbedtls\library\entropy.c             0x00000000   Number         0  entropy.o ABSOLUTE
    ..\mbedtls\library\entropy_poll.c        0x00000000   Number         0  entropy_poll.o ABSOLUTE
    ..\mbedtls\library\error.c               0x00000000   Number         0  error.o ABSOLUTE
    ..\mbedtls\library\gcm.c                 0x00000000   Number         0  gcm.o ABSOLUTE
    ..\mbedtls\library\havege.c              0x00000000   Number         0  havege.o ABSOLUTE
    ..\mbedtls\library\hkdf.c                0x00000000   Number         0  hkdf.o ABSOLUTE
    ..\mbedtls\library\hmac_drbg.c           0x00000000   Number         0  hmac_drbg.o ABSOLUTE
    ..\mbedtls\library\md.c                  0x00000000   Number         0  md.o ABSOLUTE
    ..\mbedtls\library\md2.c                 0x00000000   Number         0  md2.o ABSOLUTE
    ..\mbedtls\library\md4.c                 0x00000000   Number         0  md4.o ABSOLUTE
    ..\mbedtls\library\md5.c                 0x00000000   Number         0  md5.o ABSOLUTE
    ..\mbedtls\library\memory_buffer_alloc.c 0x00000000   Number         0  memory_buffer_alloc.o ABSOLUTE
    ..\mbedtls\library\net_sockets.c         0x00000000   Number         0  net_sockets.o ABSOLUTE
    ..\mbedtls\library\nist_kw.c             0x00000000   Number         0  nist_kw.o ABSOLUTE
    ..\mbedtls\library\oid.c                 0x00000000   Number         0  oid.o ABSOLUTE
    ..\mbedtls\library\padlock.c             0x00000000   Number         0  padlock.o ABSOLUTE
    ..\mbedtls\library\pem.c                 0x00000000   Number         0  pem.o ABSOLUTE
    ..\mbedtls\library\pk.c                  0x00000000   Number         0  pk.o ABSOLUTE
    ..\mbedtls\library\pk_wrap.c             0x00000000   Number         0  pk_wrap.o ABSOLUTE
    ..\mbedtls\library\pkcs11.c              0x00000000   Number         0  pkcs11.o ABSOLUTE
    ..\mbedtls\library\pkcs12.c              0x00000000   Number         0  pkcs12.o ABSOLUTE
    ..\mbedtls\library\pkcs5.c               0x00000000   Number         0  pkcs5.o ABSOLUTE
    ..\mbedtls\library\pkparse.c             0x00000000   Number         0  pkparse.o ABSOLUTE
    ..\mbedtls\library\pkwrite.c             0x00000000   Number         0  pkwrite.o ABSOLUTE
    ..\mbedtls\library\platform.c            0x00000000   Number         0  platform.o ABSOLUTE
    ..\mbedtls\library\platform_util.c       0x00000000   Number         0  platform_util.o ABSOLUTE
    ..\mbedtls\library\poly1305.c            0x00000000   Number         0  poly1305.o ABSOLUTE
    ..\mbedtls\library\psa_crypto.c          0x00000000   Number         0  psa_crypto.o ABSOLUTE
    ..\mbedtls\library\psa_crypto_se.c       0x00000000   Number         0  psa_crypto_se.o ABSOLUTE
    ..\mbedtls\library\psa_crypto_slot_management.c 0x00000000   Number         0  psa_crypto_slot_management.o ABSOLUTE
    ..\mbedtls\library\psa_crypto_storage.c  0x00000000   Number         0  psa_crypto_storage.o ABSOLUTE
    ..\mbedtls\library\psa_its_file.c        0x00000000   Number         0  psa_its_file.o ABSOLUTE
    ..\mbedtls\library\ripemd160.c           0x00000000   Number         0  ripemd160.o ABSOLUTE
    ..\mbedtls\library\rsa.c                 0x00000000   Number         0  rsa.o ABSOLUTE
    ..\mbedtls\library\rsa_internal.c        0x00000000   Number         0  rsa_internal.o ABSOLUTE
    ..\mbedtls\library\sha1.c                0x00000000   Number         0  sha1.o ABSOLUTE
    ..\mbedtls\library\sha256.c              0x00000000   Number         0  sha256.o ABSOLUTE
    ..\mbedtls\library\sha512.c              0x00000000   Number         0  sha512.o ABSOLUTE
    ..\mbedtls\library\ssl_cache.c           0x00000000   Number         0  ssl_cache.o ABSOLUTE
    ..\mbedtls\library\ssl_ciphersuites.c    0x00000000   Number         0  ssl_ciphersuites.o ABSOLUTE
    ..\mbedtls\library\ssl_cli.c             0x00000000   Number         0  ssl_cli.o ABSOLUTE
    ..\mbedtls\library\ssl_cookie.c          0x00000000   Number         0  ssl_cookie.o ABSOLUTE
    ..\mbedtls\library\ssl_msg.c             0x00000000   Number         0  ssl_msg.o ABSOLUTE
    ..\mbedtls\library\ssl_srv.c             0x00000000   Number         0  ssl_srv.o ABSOLUTE
    ..\mbedtls\library\ssl_ticket.c          0x00000000   Number         0  ssl_ticket.o ABSOLUTE
    ..\mbedtls\library\ssl_tls.c             0x00000000   Number         0  ssl_tls.o ABSOLUTE
    ..\mbedtls\library\threading.c           0x00000000   Number         0  threading.o ABSOLUTE
    ..\mbedtls\library\timing.c              0x00000000   Number         0  timing.o ABSOLUTE
    ..\mbedtls\library\version.c             0x00000000   Number         0  version.o ABSOLUTE
    ..\mbedtls\library\version_features.c    0x00000000   Number         0  version_features.o ABSOLUTE
    ..\mbedtls\library\x509.c                0x00000000   Number         0  x509.o ABSOLUTE
    ..\mbedtls\library\x509_create.c         0x00000000   Number         0  x509_create.o ABSOLUTE
    ..\mbedtls\library\x509_crl.c            0x00000000   Number         0  x509_crl.o ABSOLUTE
    ..\mbedtls\library\x509_crt.c            0x00000000   Number         0  x509_crt.o ABSOLUTE
    ..\mbedtls\library\x509_csr.c            0x00000000   Number         0  x509_csr.o ABSOLUTE
    ..\mbedtls\library\x509write_crt.c       0x00000000   Number         0  x509write_crt.o ABSOLUTE
    ..\mbedtls\library\x509write_csr.c       0x00000000   Number         0  x509write_csr.o ABSOLUTE
    ..\mbedtls\library\xtea.c                0x00000000   Number         0  xtea.o ABSOLUTE
    cdrcmple.s                               0x00000000   Number         0  cdrcmple.o ABSOLUTE
    dc.s                                     0x00000000   Number         0  dc.o ABSOLUTE
    handlers.s                               0x00000000   Number         0  handlers.o ABSOLUTE
    init.s                                   0x00000000   Number         0  init.o ABSOLUTE
    startup_stm32f103xb.s                    0x00000000   Number         0  startup_stm32f103xb.o ABSOLUTE
    RESET                                    0x08000000   Section      236  startup_stm32f103xb.o(RESET)
    .ARM.Collect$$$$00000000                 0x080000ec   Section        0  entry.o(.ARM.Collect$$$$00000000)
    .ARM.Collect$$$$00000001                 0x080000ec   Section        4  entry2.o(.ARM.Collect$$$$00000001)
    .ARM.Collect$$$$00000004                 0x080000f0   Section        4  entry5.o(.ARM.Collect$$$$00000004)
    .ARM.Collect$$$$00000008                 0x080000f4   Section        0  entry7b.o(.ARM.Collect$$$$00000008)
    .ARM.Collect$$$$0000000A                 0x080000f4   Section        0  entry8b.o(.ARM.Collect$$$$0000000A)
    .ARM.Collect$$$$0000000B                 0x080000f4   Section        8  entry9a.o(.ARM.Collect$$$$0000000B)
    .ARM.Collect$$$$0000000D                 0x080000fc   Section        0  entry10a.o(.ARM.Collect$$$$0000000D)
    .ARM.Collect$$$$0000000F                 0x080000fc   Section        0  entry11a.o(.ARM.Collect$$$$0000000F)
    .ARM.Collect$$$$00002712                 0x080000fc   Section        4  entry2.o(.ARM.Collect$$$$00002712)
    __lit__00000000                          0x080000fc   Data           4  entry2.o(.ARM.Collect$$$$00002712)
    .text                                    0x08000100   Section       36  startup_stm32f103xb.o(.text)
    .text                                    0x08000124   Section        0  uldiv.o(.text)
    .text                                    0x08000186   Section        0  llushr.o(.text)
    .text                                    0x080001a6   Section        0  memmovea.o(.text)
    .text                                    0x080001e6   Section        0  memseta.o(.text)
    .text                                    0x0800020a   Section        0  llshl.o(.text)
    .text                                    0x08000228   Section       36  init.o(.text)
    i.BusFault_Handler                       0x0800024c   Section        0  stm32f1xx_it.o(i.BusFault_Handler)
    i.DebugMon_Handler                       0x0800024e   Section        0  stm32f1xx_it.o(i.DebugMon_Handler)
    i.Error_Handler                          0x08000250   Section        0  main.o(i.Error_Handler)
    i.HAL_GPIO_Init                          0x08000254   Section        0  stm32f1xx_hal_gpio.o(i.HAL_GPIO_Init)
    i.HAL_GetTick                            0x08000434   Section        0  stm32f1xx_hal.o(i.HAL_GetTick)
    i.HAL_IncTick                            0x08000440   Section        0  stm32f1xx_hal.o(i.HAL_IncTick)
    i.HAL_Init                               0x08000450   Section        0  stm32f1xx_hal.o(i.HAL_Init)
    i.HAL_InitTick                           0x08000474   Section        0  stm32f1xx_hal.o(i.HAL_InitTick)
    i.HAL_MspInit                            0x080004b4   Section        0  stm32f1xx_hal_msp.o(i.HAL_MspInit)
    i.HAL_NVIC_SetPriority                   0x080004f0   Section        0  stm32f1xx_hal_cortex.o(i.HAL_NVIC_SetPriority)
    i.HAL_NVIC_SetPriorityGrouping           0x08000530   Section        0  stm32f1xx_hal_cortex.o(i.HAL_NVIC_SetPriorityGrouping)
    i.HAL_RCC_ClockConfig                    0x08000554   Section        0  stm32f1xx_hal_rcc.o(i.HAL_RCC_ClockConfig)
    i.HAL_RCC_GetPCLK1Freq                   0x08000680   Section        0  stm32f1xx_hal_rcc.o(i.HAL_RCC_GetPCLK1Freq)
    i.HAL_RCC_GetPCLK2Freq                   0x080006a0   Section        0  stm32f1xx_hal_rcc.o(i.HAL_RCC_GetPCLK2Freq)
    i.HAL_RCC_GetSysClockFreq                0x080006c0   Section        0  stm32f1xx_hal_rcc.o(i.HAL_RCC_GetSysClockFreq)
    i.HAL_RCC_OscConfig                      0x0800072c   Section        0  stm32f1xx_hal_rcc.o(i.HAL_RCC_OscConfig)
    i.HAL_SYSTICK_Config                     0x08000a4c   Section        0  stm32f1xx_hal_cortex.o(i.HAL_SYSTICK_Config)
    i.HAL_UART_Init                          0x08000a74   Section        0  stm32f1xx_hal_uart.o(i.HAL_UART_Init)
    i.HAL_UART_MspInit                       0x08000ad8   Section        0  usart.o(i.HAL_UART_MspInit)
    i.HardFault_Handler                      0x08000b48   Section        0  stm32f1xx_it.o(i.HardFault_Handler)
    i.MX_GPIO_Init                           0x08000b4c   Section        0  gpio.o(i.MX_GPIO_Init)
    i.MX_USART1_UART_Init                    0x08000b78   Section        0  usart.o(i.MX_USART1_UART_Init)
    i.MemManage_Handler                      0x08000bb0   Section        0  stm32f1xx_it.o(i.MemManage_Handler)
    i.NMI_Handler                            0x08000bb2   Section        0  stm32f1xx_it.o(i.NMI_Handler)
    i.PendSV_Handler                         0x08000bb4   Section        0  stm32f1xx_it.o(i.PendSV_Handler)
    i.SVC_Handler                            0x08000bb6   Section        0  stm32f1xx_it.o(i.SVC_Handler)
    i.SysTick_Handler                        0x08000bb8   Section        0  stm32f1xx_it.o(i.SysTick_Handler)
    i.SystemClock_Config                     0x08000bbc   Section        0  main.o(i.SystemClock_Config)
    i.SystemInit                             0x08000c0a   Section        0  system_stm32f1xx.o(i.SystemInit)
    i.UART_SetConfig                         0x08000c0c   Section        0  stm32f1xx_hal_uart.o(i.UART_SetConfig)
    UART_SetConfig                           0x08000c0d   Thumb Code   178  stm32f1xx_hal_uart.o(i.UART_SetConfig)
    i.UsageFault_Handler                     0x08000cc4   Section        0  stm32f1xx_it.o(i.UsageFault_Handler)
    i.__0printf$8                            0x08000cc8   Section        0  printf8.o(i.__0printf$8)
    i.__NVIC_SetPriority                     0x08000ce8   Section        0  stm32f1xx_hal_cortex.o(i.__NVIC_SetPriority)
    __NVIC_SetPriority                       0x08000ce9   Thumb Code    32  stm32f1xx_hal_cortex.o(i.__NVIC_SetPriority)
    i.__scatterload_copy                     0x08000d08   Section       14  handlers.o(i.__scatterload_copy)
    i.__scatterload_null                     0x08000d16   Section        2  handlers.o(i.__scatterload_null)
    i.__scatterload_zeroinit                 0x08000d18   Section       14  handlers.o(i.__scatterload_zeroinit)
    i._printf_core                           0x08000d28   Section        0  printf8.o(i._printf_core)
    _printf_core                             0x08000d29   Thumb Code   996  printf8.o(i._printf_core)
    i._printf_post_padding                   0x08001138   Section        0  printf8.o(i._printf_post_padding)
    _printf_post_padding                     0x08001139   Thumb Code    36  printf8.o(i._printf_post_padding)
    i._printf_pre_padding                    0x0800115c   Section        0  printf8.o(i._printf_pre_padding)
    _printf_pre_padding                      0x0800115d   Thumb Code    46  printf8.o(i._printf_pre_padding)
    i.aes_gen_tables                         0x0800118c   Section        0  aes.o(i.aes_gen_tables)
    aes_gen_tables                           0x0800118d   Thumb Code   412  aes.o(i.aes_gen_tables)
    i.fputc                                  0x08001340   Section        0  main.o(i.fputc)
    i.main                                   0x08001358   Section        0  main.o(i.main)
    i.mbedtls_aes_cbc_demo                   0x08001378   Section        0  main.o(i.mbedtls_aes_cbc_demo)
    i.mbedtls_aes_crypt_cbc                  0x08001460   Section        0  aes.o(i.mbedtls_aes_crypt_cbc)
    i.mbedtls_aes_crypt_ecb                  0x080014f6   Section        0  aes.o(i.mbedtls_aes_crypt_ecb)
    i.mbedtls_aes_ecb_demo                   0x08001510   Section        0  main.o(i.mbedtls_aes_ecb_demo)
    i.mbedtls_aes_free                       0x080015fc   Section        0  aes.o(i.mbedtls_aes_free)
    i.mbedtls_aes_init                       0x0800160a   Section        0  aes.o(i.mbedtls_aes_init)
    i.mbedtls_aes_setkey_dec                 0x08001614   Section        0  aes.o(i.mbedtls_aes_setkey_dec)
    i.mbedtls_aes_setkey_enc                 0x080016dc   Section        0  aes.o(i.mbedtls_aes_setkey_enc)
    i.mbedtls_base64_decode                  0x0800188c   Section        0  base64.o(i.mbedtls_base64_decode)
    i.mbedtls_base64_demo                    0x080019c8   Section        0  main.o(i.mbedtls_base64_demo)
    i.mbedtls_base64_encode                  0x08001a8c   Section        0  base64.o(i.mbedtls_base64_encode)
    i.mbedtls_internal_aes_decrypt           0x08001b98   Section        0  aes.o(i.mbedtls_internal_aes_decrypt)
    i.mbedtls_internal_aes_encrypt           0x08002044   Section        0  aes.o(i.mbedtls_internal_aes_encrypt)
    i.mbedtls_platform_zeroize               0x080024f0   Section        0  platform_util.o(i.mbedtls_platform_zeroize)
    .constdata                               0x08002504   Section       16  system_stm32f1xx.o(.constdata)
    .constdata                               0x08002514   Section        8  system_stm32f1xx.o(.constdata)
    .constdata                               0x0800251c   Section      192  base64.o(.constdata)
    base64_enc_map                           0x0800251c   Data          64  base64.o(.constdata)
    base64_dec_map                           0x0800255c   Data         128  base64.o(.constdata)
    .data                                    0x20000000   Section       12  stm32f1xx_hal.o(.data)
    .data                                    0x2000000c   Section        4  system_stm32f1xx.o(.data)
    .data                                    0x20000010   Section        4  aes.o(.data)
    aes_init_done                            0x20000010   Data           4  aes.o(.data)
    .data                                    0x20000014   Section        4  platform_util.o(.data)
    memset_func                              0x20000014   Data           4  platform_util.o(.data)
    .data                                    0x20000018   Section        4  stdout.o(.data)
    .bss                                     0x2000001c   Section       64  usart.o(.bss)
    .bss                                     0x2000005c   Section     8744  aes.o(.bss)
    FSb                                      0x2000005c   Data         256  aes.o(.bss)
    FT0                                      0x2000015c   Data        1024  aes.o(.bss)
    FT1                                      0x2000055c   Data        1024  aes.o(.bss)
    FT2                                      0x2000095c   Data        1024  aes.o(.bss)
    FT3                                      0x20000d5c   Data        1024  aes.o(.bss)
    RSb                                      0x2000115c   Data         256  aes.o(.bss)
    RT0                                      0x2000125c   Data        1024  aes.o(.bss)
    RT1                                      0x2000165c   Data        1024  aes.o(.bss)
    RT2                                      0x20001a5c   Data        1024  aes.o(.bss)
    RT3                                      0x20001e5c   Data        1024  aes.o(.bss)
    RCON                                     0x2000225c   Data          40  aes.o(.bss)
    STACK                                    0x20002288   Section     4096  startup_stm32f103xb.o(STACK)

    Global Symbols

    Symbol Name                              Value     Ov Type        Size  Object(Section)

    BuildAttributes$$THM_ISAv4$P$D$K$B$S$PE$A:L22UL41UL21$X:L11$S22US41US21$IEEE1$IW$USESV6$~STKCKD$USESV7$~SHL$OSPACE$ROPI$EBA8$MICROLIB$REQ8$PRES8$EABIv2 0x00000000   Number         0  anon$$obj.o ABSOLUTE
    __ARM_use_no_argv                        0x00000000   Number         0  main.o ABSOLUTE
    _printf_a                                0x00000000   Number         0  stubs.o ABSOLUTE
    _printf_c                                0x00000000   Number         0  stubs.o ABSOLUTE
    _printf_charcount                        0x00000000   Number         0  stubs.o ABSOLUTE
    _printf_d                                0x00000000   Number         0  stubs.o ABSOLUTE
    _printf_e                                0x00000000   Number         0  stubs.o ABSOLUTE
    _printf_f                                0x00000000   Number         0  stubs.o ABSOLUTE
    _printf_flags                            0x00000000   Number         0  stubs.o ABSOLUTE
    _printf_fp_dec                           0x00000000   Number         0  stubs.o ABSOLUTE
    _printf_fp_hex                           0x00000000   Number         0  stubs.o ABSOLUTE
    _printf_g                                0x00000000   Number         0  stubs.o ABSOLUTE
    _printf_i                                0x00000000   Number         0  stubs.o ABSOLUTE
    _printf_int_dec                          0x00000000   Number         0  stubs.o ABSOLUTE
    _printf_l                                0x00000000   Number         0  stubs.o ABSOLUTE
    _printf_lc                               0x00000000   Number         0  stubs.o ABSOLUTE
    _printf_ll                               0x00000000   Number         0  stubs.o ABSOLUTE
    _printf_lld                              0x00000000   Number         0  stubs.o ABSOLUTE
    _printf_lli                              0x00000000   Number         0  stubs.o ABSOLUTE
    _printf_llo                              0x00000000   Number         0  stubs.o ABSOLUTE
    _printf_llu                              0x00000000   Number         0  stubs.o ABSOLUTE
    _printf_llx                              0x00000000   Number         0  stubs.o ABSOLUTE
    _printf_longlong_dec                     0x00000000   Number         0  stubs.o ABSOLUTE
    _printf_longlong_hex                     0x00000000   Number         0  stubs.o ABSOLUTE
    _printf_longlong_oct                     0x00000000   Number         0  stubs.o ABSOLUTE
    _printf_ls                               0x00000000   Number         0  stubs.o ABSOLUTE
    _printf_mbtowc                           0x00000000   Number         0  stubs.o ABSOLUTE
    _printf_n                                0x00000000   Number         0  stubs.o ABSOLUTE
    _printf_o                                0x00000000   Number         0  stubs.o ABSOLUTE
    _printf_p                                0x00000000   Number         0  stubs.o ABSOLUTE
    _printf_percent                          0x00000000   Number         0  stubs.o ABSOLUTE
    _printf_pre_padding                      0x00000000   Number         0  stubs.o ABSOLUTE
    _printf_return_value                     0x00000000   Number         0  stubs.o ABSOLUTE
    _printf_s                                0x00000000   Number         0  stubs.o ABSOLUTE
    _printf_sizespec                         0x00000000   Number         0  stubs.o ABSOLUTE
    _printf_str                              0x00000000   Number         0  stubs.o ABSOLUTE
    _printf_truncate_signed                  0x00000000   Number         0  stubs.o ABSOLUTE
    _printf_truncate_unsigned                0x00000000   Number         0  stubs.o ABSOLUTE
    _printf_u                                0x00000000   Number         0  stubs.o ABSOLUTE
    _printf_wc                               0x00000000   Number         0  stubs.o ABSOLUTE
    _printf_wctomb                           0x00000000   Number         0  stubs.o ABSOLUTE
    _printf_widthprec                        0x00000000   Number         0  stubs.o ABSOLUTE
    _printf_x                                0x00000000   Number         0  stubs.o ABSOLUTE
    __cpp_initialize__aeabi_                  - Undefined Weak Reference
    __cxa_finalize                            - Undefined Weak Reference
    __decompress                              - Undefined Weak Reference
    _clock_init                               - Undefined Weak Reference
    _microlib_exit                            - Undefined Weak Reference
    __Vectors_Size                           0x000000ec   Number         0  startup_stm32f103xb.o ABSOLUTE
    __Vectors                                0x08000000   Data           4  startup_stm32f103xb.o(RESET)
    __Vectors_End                            0x080000ec   Data           0  startup_stm32f103xb.o(RESET)
    __main                                   0x080000ed   Thumb Code     0  entry.o(.ARM.Collect$$$$00000000)
    _main_stk                                0x080000ed   Thumb Code     0  entry2.o(.ARM.Collect$$$$00000001)
    _main_scatterload                        0x080000f1   Thumb Code     0  entry5.o(.ARM.Collect$$$$00000004)
    __main_after_scatterload                 0x080000f5   Thumb Code     0  entry5.o(.ARM.Collect$$$$00000004)
    _main_clock                              0x080000f5   Thumb Code     0  entry7b.o(.ARM.Collect$$$$00000008)
    _main_cpp_init                           0x080000f5   Thumb Code     0  entry8b.o(.ARM.Collect$$$$0000000A)
    _main_init                               0x080000f5   Thumb Code     0  entry9a.o(.ARM.Collect$$$$0000000B)
    __rt_final_cpp                           0x080000fd   Thumb Code     0  entry10a.o(.ARM.Collect$$$$0000000D)
    __rt_final_exit                          0x080000fd   Thumb Code     0  entry11a.o(.ARM.Collect$$$$0000000F)
    Reset_Handler                            0x08000101   Thumb Code     8  startup_stm32f103xb.o(.text)
    ADC1_2_IRQHandler                        0x0800011b   Thumb Code     0  startup_stm32f103xb.o(.text)
    CAN1_RX1_IRQHandler                      0x0800011b   Thumb Code     0  startup_stm32f103xb.o(.text)
    CAN1_SCE_IRQHandler                      0x0800011b   Thumb Code     0  startup_stm32f103xb.o(.text)
    DMA1_Channel1_IRQHandler                 0x0800011b   Thumb Code     0  startup_stm32f103xb.o(.text)
    DMA1_Channel2_IRQHandler                 0x0800011b   Thumb Code     0  startup_stm32f103xb.o(.text)
    DMA1_Channel3_IRQHandler                 0x0800011b   Thumb Code     0  startup_stm32f103xb.o(.text)
    DMA1_Channel4_IRQHandler                 0x0800011b   Thumb Code     0  startup_stm32f103xb.o(.text)
    DMA1_Channel5_IRQHandler                 0x0800011b   Thumb Code     0  startup_stm32f103xb.o(.text)
    DMA1_Channel6_IRQHandler                 0x0800011b   Thumb Code     0  startup_stm32f103xb.o(.text)
    DMA1_Channel7_IRQHandler                 0x0800011b   Thumb Code     0  startup_stm32f103xb.o(.text)
    EXTI0_IRQHandler                         0x0800011b   Thumb Code     0  startup_stm32f103xb.o(.text)
    EXTI15_10_IRQHandler                     0x0800011b   Thumb Code     0  startup_stm32f103xb.o(.text)
    EXTI1_IRQHandler                         0x0800011b   Thumb Code     0  startup_stm32f103xb.o(.text)
    EXTI2_IRQHandler                         0x0800011b   Thumb Code     0  startup_stm32f103xb.o(.text)
    EXTI3_IRQHandler                         0x0800011b   Thumb Code     0  startup_stm32f103xb.o(.text)
    EXTI4_IRQHandler                         0x0800011b   Thumb Code     0  startup_stm32f103xb.o(.text)
    EXTI9_5_IRQHandler                       0x0800011b   Thumb Code     0  startup_stm32f103xb.o(.text)
    FLASH_IRQHandler                         0x0800011b   Thumb Code     0  startup_stm32f103xb.o(.text)
    I2C1_ER_IRQHandler                       0x0800011b   Thumb Code     0  startup_stm32f103xb.o(.text)
    I2C1_EV_IRQHandler                       0x0800011b   Thumb Code     0  startup_stm32f103xb.o(.text)
    I2C2_ER_IRQHandler                       0x0800011b   Thumb Code     0  startup_stm32f103xb.o(.text)
    I2C2_EV_IRQHandler                       0x0800011b   Thumb Code     0  startup_stm32f103xb.o(.text)
    PVD_IRQHandler                           0x0800011b   Thumb Code     0  startup_stm32f103xb.o(.text)
    RCC_IRQHandler                           0x0800011b   Thumb Code     0  startup_stm32f103xb.o(.text)
    RTC_Alarm_IRQHandler                     0x0800011b   Thumb Code     0  startup_stm32f103xb.o(.text)
    RTC_IRQHandler                           0x0800011b   Thumb Code     0  startup_stm32f103xb.o(.text)
    SPI1_IRQHandler                          0x0800011b   Thumb Code     0  startup_stm32f103xb.o(.text)
    SPI2_IRQHandler                          0x0800011b   Thumb Code     0  startup_stm32f103xb.o(.text)
    TAMPER_IRQHandler                        0x0800011b   Thumb Code     0  startup_stm32f103xb.o(.text)
    TIM1_BRK_IRQHandler                      0x0800011b   Thumb Code     0  startup_stm32f103xb.o(.text)
    TIM1_CC_IRQHandler                       0x0800011b   Thumb Code     0  startup_stm32f103xb.o(.text)
    TIM1_TRG_COM_IRQHandler                  0x0800011b   Thumb Code     0  startup_stm32f103xb.o(.text)
    TIM1_UP_IRQHandler                       0x0800011b   Thumb Code     0  startup_stm32f103xb.o(.text)
    TIM2_IRQHandler                          0x0800011b   Thumb Code     0  startup_stm32f103xb.o(.text)
    TIM3_IRQHandler                          0x0800011b   Thumb Code     0  startup_stm32f103xb.o(.text)
    TIM4_IRQHandler                          0x0800011b   Thumb Code     0  startup_stm32f103xb.o(.text)
    USART1_IRQHandler                        0x0800011b   Thumb Code     0  startup_stm32f103xb.o(.text)
    USART2_IRQHandler                        0x0800011b   Thumb Code     0  startup_stm32f103xb.o(.text)
    USART3_IRQHandler                        0x0800011b   Thumb Code     0  startup_stm32f103xb.o(.text)
    USBWakeUp_IRQHandler                     0x0800011b   Thumb Code     0  startup_stm32f103xb.o(.text)
    USB_HP_CAN1_TX_IRQHandler                0x0800011b   Thumb Code     0  startup_stm32f103xb.o(.text)
    USB_LP_CAN1_RX0_IRQHandler               0x0800011b   Thumb Code     0  startup_stm32f103xb.o(.text)
    WWDG_IRQHandler                          0x0800011b   Thumb Code     0  startup_stm32f103xb.o(.text)
    __aeabi_uldivmod                         0x08000125   Thumb Code    98  uldiv.o(.text)
    __aeabi_llsr                             0x08000187   Thumb Code    32  llushr.o(.text)
    _ll_ushift_r                             0x08000187   Thumb Code     0  llushr.o(.text)
    ___aeabi_memcpy8$move                    0x080001a7   Thumb Code     0  memmovea.o(.text)
    __aeabi_memcpy                           0x080001a7   Thumb Code    64  memmovea.o(.text)
    __aeabi_memcpy4                          0x080001a7   Thumb Code     0  memmovea.o(.text)
    __aeabi_memmove                          0x080001a7   Thumb Code     0  memmovea.o(.text)
    __aeabi_memmove4                         0x080001a7   Thumb Code     0  memmovea.o(.text)
    __aeabi_memmove8                         0x080001a7   Thumb Code     0  memmovea.o(.text)
    __aeabi_memset                           0x080001e7   Thumb Code    14  memseta.o(.text)
    __aeabi_memset4                          0x080001e7   Thumb Code     0  memseta.o(.text)
    __aeabi_memset8                          0x080001e7   Thumb Code     0  memseta.o(.text)
    __aeabi_memclr                           0x080001f5   Thumb Code     4  memseta.o(.text)
    __aeabi_memclr4                          0x080001f5   Thumb Code     0  memseta.o(.text)
    __aeabi_memclr8                          0x080001f5   Thumb Code     0  memseta.o(.text)
    memset                                   0x080001f9   Thumb Code    18  memseta.o(.text)
    __aeabi_llsl                             0x0800020b   Thumb Code    30  llshl.o(.text)
    _ll_shift_l                              0x0800020b   Thumb Code     0  llshl.o(.text)
    __scatterload                            0x08000229   Thumb Code    28  init.o(.text)
    __scatterload_rt2                        0x08000229   Thumb Code     0  init.o(.text)
    BusFault_Handler                         0x0800024d   Thumb Code     2  stm32f1xx_it.o(i.BusFault_Handler)
    DebugMon_Handler                         0x0800024f   Thumb Code     2  stm32f1xx_it.o(i.DebugMon_Handler)
    Error_Handler                            0x08000251   Thumb Code     2  main.o(i.Error_Handler)
    HAL_GPIO_Init                            0x08000255   Thumb Code   446  stm32f1xx_hal_gpio.o(i.HAL_GPIO_Init)
    HAL_GetTick                              0x08000435   Thumb Code     6  stm32f1xx_hal.o(i.HAL_GetTick)
    HAL_IncTick                              0x08000441   Thumb Code    12  stm32f1xx_hal.o(i.HAL_IncTick)
    HAL_Init                                 0x08000451   Thumb Code    32  stm32f1xx_hal.o(i.HAL_Init)
    HAL_InitTick                             0x08000475   Thumb Code    54  stm32f1xx_hal.o(i.HAL_InitTick)
    HAL_MspInit                              0x080004b5   Thumb Code    52  stm32f1xx_hal_msp.o(i.HAL_MspInit)
    HAL_NVIC_SetPriority                     0x080004f1   Thumb Code    60  stm32f1xx_hal_cortex.o(i.HAL_NVIC_SetPriority)
    HAL_NVIC_SetPriorityGrouping             0x08000531   Thumb Code    26  stm32f1xx_hal_cortex.o(i.HAL_NVIC_SetPriorityGrouping)
    HAL_RCC_ClockConfig                      0x08000555   Thumb Code   280  stm32f1xx_hal_rcc.o(i.HAL_RCC_ClockConfig)
    HAL_RCC_GetPCLK1Freq                     0x08000681   Thumb Code    20  stm32f1xx_hal_rcc.o(i.HAL_RCC_GetPCLK1Freq)
    HAL_RCC_GetPCLK2Freq                     0x080006a1   Thumb Code    20  stm32f1xx_hal_rcc.o(i.HAL_RCC_GetPCLK2Freq)
    HAL_RCC_GetSysClockFreq                  0x080006c1   Thumb Code    74  stm32f1xx_hal_rcc.o(i.HAL_RCC_GetSysClockFreq)
    HAL_RCC_OscConfig                        0x0800072d   Thumb Code   778  stm32f1xx_hal_rcc.o(i.HAL_RCC_OscConfig)
    HAL_SYSTICK_Config                       0x08000a4d   Thumb Code    40  stm32f1xx_hal_cortex.o(i.HAL_SYSTICK_Config)
    HAL_UART_Init                            0x08000a75   Thumb Code    98  stm32f1xx_hal_uart.o(i.HAL_UART_Init)
    HAL_UART_MspInit                         0x08000ad9   Thumb Code   100  usart.o(i.HAL_UART_MspInit)
    HardFault_Handler                        0x08000b49   Thumb Code     2  stm32f1xx_it.o(i.HardFault_Handler)
    MX_GPIO_Init                             0x08000b4d   Thumb Code    38  gpio.o(i.MX_GPIO_Init)
    MX_USART1_UART_Init                      0x08000b79   Thumb Code    48  usart.o(i.MX_USART1_UART_Init)
    MemManage_Handler                        0x08000bb1   Thumb Code     2  stm32f1xx_it.o(i.MemManage_Handler)
    NMI_Handler                              0x08000bb3   Thumb Code     2  stm32f1xx_it.o(i.NMI_Handler)
    PendSV_Handler                           0x08000bb5   Thumb Code     2  stm32f1xx_it.o(i.PendSV_Handler)
    SVC_Handler                              0x08000bb7   Thumb Code     2  stm32f1xx_it.o(i.SVC_Handler)
    SysTick_Handler                          0x08000bb9   Thumb Code     4  stm32f1xx_it.o(i.SysTick_Handler)
    SystemClock_Config                       0x08000bbd   Thumb Code    78  main.o(i.SystemClock_Config)
    SystemInit                               0x08000c0b   Thumb Code     2  system_stm32f1xx.o(i.SystemInit)
    UsageFault_Handler                       0x08000cc5   Thumb Code     2  stm32f1xx_it.o(i.UsageFault_Handler)
    __0printf$8                              0x08000cc9   Thumb Code    22  printf8.o(i.__0printf$8)
    __1printf$8                              0x08000cc9   Thumb Code     0  printf8.o(i.__0printf$8)
    __2printf                                0x08000cc9   Thumb Code     0  printf8.o(i.__0printf$8)
    __scatterload_copy                       0x08000d09   Thumb Code    14  handlers.o(i.__scatterload_copy)
    __scatterload_null                       0x08000d17   Thumb Code     2  handlers.o(i.__scatterload_null)
    __scatterload_zeroinit                   0x08000d19   Thumb Code    14  handlers.o(i.__scatterload_zeroinit)
    fputc                                    0x08001341   Thumb Code    18  main.o(i.fputc)
    main                                     0x08001359   Thumb Code    30  main.o(i.main)
    mbedtls_aes_cbc_demo                     0x08001379   Thumb Code   150  main.o(i.mbedtls_aes_cbc_demo)
    mbedtls_aes_crypt_cbc                    0x08001461   Thumb Code   150  aes.o(i.mbedtls_aes_crypt_cbc)
    mbedtls_aes_crypt_ecb                    0x080014f7   Thumb Code    24  aes.o(i.mbedtls_aes_crypt_ecb)
    mbedtls_aes_ecb_demo                     0x08001511   Thumb Code   148  main.o(i.mbedtls_aes_ecb_demo)
    mbedtls_aes_free                         0x080015fd   Thumb Code    14  aes.o(i.mbedtls_aes_free)
    mbedtls_aes_init                         0x0800160b   Thumb Code     8  aes.o(i.mbedtls_aes_init)
    mbedtls_aes_setkey_dec                   0x08001615   Thumb Code   196  aes.o(i.mbedtls_aes_setkey_dec)
    mbedtls_aes_setkey_enc                   0x080016dd   Thumb Code   424  aes.o(i.mbedtls_aes_setkey_enc)
    mbedtls_base64_decode                    0x0800188d   Thumb Code   310  base64.o(i.mbedtls_base64_decode)
    mbedtls_base64_demo                      0x080019c9   Thumb Code   112  main.o(i.mbedtls_base64_demo)
    mbedtls_base64_encode                    0x08001a8d   Thumb Code   262  base64.o(i.mbedtls_base64_encode)
    mbedtls_internal_aes_decrypt             0x08001b99   Thumb Code  1194  aes.o(i.mbedtls_internal_aes_decrypt)
    mbedtls_internal_aes_encrypt             0x08002045   Thumb Code  1194  aes.o(i.mbedtls_internal_aes_encrypt)
    mbedtls_platform_zeroize                 0x080024f1   Thumb Code    16  platform_util.o(i.mbedtls_platform_zeroize)
    AHBPrescTable                            0x08002504   Data          16  system_stm32f1xx.o(.constdata)
    APBPrescTable                            0x08002514   Data           8  system_stm32f1xx.o(.constdata)
    Region$$Table$$Base                      0x080025dc   Number         0  anon$$obj.o(Region$$Table)
    Region$$Table$$Limit                     0x080025fc   Number         0  anon$$obj.o(Region$$Table)
    uwTickFreq                               0x20000000   Data           1  stm32f1xx_hal.o(.data)
    uwTickPrio                               0x20000004   Data           4  stm32f1xx_hal.o(.data)
    uwTick                                   0x20000008   Data           4  stm32f1xx_hal.o(.data)
    SystemCoreClock                          0x2000000c   Data           4  system_stm32f1xx.o(.data)
    __stdout                                 0x20000018   Data           4  stdout.o(.data)
    huart1                                   0x2000001c   Data          64  usart.o(.bss)
    __initial_sp                             0x20003288   Data           0  startup_stm32f103xb.o(STACK)



==============================================================================

Memory Map of the image

  Image Entry point : 0x080000ed

  Load Region LR_IROM1 (Base: 0x08000000, Size: 0x00002618, Max: 0x00020000, ABSOLUTE)

    Execution Region ER_IROM1 (Base: 0x08000000, Size: 0x000025fc, Max: 0x00020000, ABSOLUTE)

    Base Addr    Size         Type   Attr      Idx    E Section Name        Object

    0x08000000   0x000000ec   Data   RO            3    RESET               startup_stm32f103xb.o
    0x080000ec   0x00000000   Code   RO         5754  * .ARM.Collect$$$$00000000  mc_w.l(entry.o)
    0x080000ec   0x00000004   Code   RO         6072    .ARM.Collect$$$$00000001  mc_w.l(entry2.o)
    0x080000f0   0x00000004   Code   RO         6075    .ARM.Collect$$$$00000004  mc_w.l(entry5.o)
    0x080000f4   0x00000000   Code   RO         6077    .ARM.Collect$$$$00000008  mc_w.l(entry7b.o)
    0x080000f4   0x00000000   Code   RO         6079    .ARM.Collect$$$$0000000A  mc_w.l(entry8b.o)
    0x080000f4   0x00000008   Code   RO         6080    .ARM.Collect$$$$0000000B  mc_w.l(entry9a.o)
    0x080000fc   0x00000000   Code   RO         6082    .ARM.Collect$$$$0000000D  mc_w.l(entry10a.o)
    0x080000fc   0x00000000   Code   RO         6084    .ARM.Collect$$$$0000000F  mc_w.l(entry11a.o)
    0x080000fc   0x00000004   Code   RO         6073    .ARM.Collect$$$$00002712  mc_w.l(entry2.o)
    0x08000100   0x00000024   Code   RO            4    .text               startup_stm32f103xb.o
    0x08000124   0x00000062   Code   RO         5757    .text               mc_w.l(uldiv.o)
    0x08000186   0x00000020   Code   RO         5759    .text               mc_w.l(llushr.o)
    0x080001a6   0x00000040   Code   RO         5763    .text               mc_w.l(memmovea.o)
    0x080001e6   0x00000024   Code   RO         5767    .text               mc_w.l(memseta.o)
    0x0800020a   0x0000001e   Code   RO         6089    .text               mc_w.l(llshl.o)
    0x08000228   0x00000024   Code   RO         6104    .text               mc_w.l(init.o)
    0x0800024c   0x00000002   Code   RO          250    i.BusFault_Handler  stm32f1xx_it.o
    0x0800024e   0x00000002   Code   RO          251    i.DebugMon_Handler  stm32f1xx_it.o
    0x08000250   0x00000002   Code   RO           13    i.Error_Handler     main.o
    0x08000252   0x00000002   PAD
    0x08000254   0x000001e0   Code   RO         1057    i.HAL_GPIO_Init     stm32f1xx_hal_gpio.o
    0x08000434   0x0000000c   Code   RO          753    i.HAL_GetTick       stm32f1xx_hal.o
    0x08000440   0x00000010   Code   RO          759    i.HAL_IncTick       stm32f1xx_hal.o
    0x08000450   0x00000024   Code   RO          760    i.HAL_Init          stm32f1xx_hal.o
    0x08000474   0x00000040   Code   RO          761    i.HAL_InitTick      stm32f1xx_hal.o
    0x080004b4   0x0000003c   Code   RO          325    i.HAL_MspInit       stm32f1xx_hal_msp.o
    0x080004f0   0x00000040   Code   RO         1223    i.HAL_NVIC_SetPriority  stm32f1xx_hal_cortex.o
    0x08000530   0x00000024   Code   RO         1224    i.HAL_NVIC_SetPriorityGrouping  stm32f1xx_hal_cortex.o
    0x08000554   0x0000012c   Code   RO          917    i.HAL_RCC_ClockConfig  stm32f1xx_hal_rcc.o
    0x08000680   0x00000020   Code   RO          924    i.HAL_RCC_GetPCLK1Freq  stm32f1xx_hal_rcc.o
    0x080006a0   0x00000020   Code   RO          925    i.HAL_RCC_GetPCLK2Freq  stm32f1xx_hal_rcc.o
    0x080006c0   0x0000006c   Code   RO          926    i.HAL_RCC_GetSysClockFreq  stm32f1xx_hal_rcc.o
    0x0800072c   0x00000320   Code   RO          929    i.HAL_RCC_OscConfig  stm32f1xx_hal_rcc.o
    0x08000a4c   0x00000028   Code   RO         1228    i.HAL_SYSTICK_Config  stm32f1xx_hal_cortex.o
    0x08000a74   0x00000062   Code   RO          446    i.HAL_UART_Init     stm32f1xx_hal_uart.o
    0x08000ad6   0x00000002   PAD
    0x08000ad8   0x00000070   Code   RO          209    i.HAL_UART_MspInit  usart.o
    0x08000b48   0x00000002   Code   RO          252    i.HardFault_Handler  stm32f1xx_it.o
    0x08000b4a   0x00000002   PAD
    0x08000b4c   0x0000002c   Code   RO          184    i.MX_GPIO_Init      gpio.o
    0x08000b78   0x00000038   Code   RO          210    i.MX_USART1_UART_Init  usart.o
    0x08000bb0   0x00000002   Code   RO          253    i.MemManage_Handler  stm32f1xx_it.o
    0x08000bb2   0x00000002   Code   RO          254    i.NMI_Handler       stm32f1xx_it.o
    0x08000bb4   0x00000002   Code   RO          255    i.PendSV_Handler    stm32f1xx_it.o
    0x08000bb6   0x00000002   Code   RO          256    i.SVC_Handler       stm32f1xx_it.o
    0x08000bb8   0x00000004   Code   RO          257    i.SysTick_Handler   stm32f1xx_it.o
    0x08000bbc   0x0000004e   Code   RO           14    i.SystemClock_Config  main.o
    0x08000c0a   0x00000002   Code   RO         1718    i.SystemInit        system_stm32f1xx.o
    0x08000c0c   0x000000b8   Code   RO          472    i.UART_SetConfig    stm32f1xx_hal_uart.o
    0x08000cc4   0x00000002   Code   RO          258    i.UsageFault_Handler  stm32f1xx_it.o
    0x08000cc6   0x00000002   PAD
    0x08000cc8   0x00000020   Code   RO         5988    i.__0printf$8       mc_w.l(printf8.o)
    0x08000ce8   0x00000020   Code   RO         1230    i.__NVIC_SetPriority  stm32f1xx_hal_cortex.o
    0x08000d08   0x0000000e   Code   RO         6112    i.__scatterload_copy  mc_w.l(handlers.o)
    0x08000d16   0x00000002   Code   RO         6113    i.__scatterload_null  mc_w.l(handlers.o)
    0x08000d18   0x0000000e   Code   RO         6114    i.__scatterload_zeroinit  mc_w.l(handlers.o)
    0x08000d26   0x00000002   PAD
    0x08000d28   0x00000410   Code   RO         5995    i._printf_core      mc_w.l(printf8.o)
    0x08001138   0x00000024   Code   RO         5996    i._printf_post_padding  mc_w.l(printf8.o)
    0x0800115c   0x0000002e   Code   RO         5997    i._printf_pre_padding  mc_w.l(printf8.o)
    0x0800118a   0x00000002   PAD
    0x0800118c   0x000001b4   Code   RO         1752    i.aes_gen_tables    aes.o
    0x08001340   0x00000018   Code   RO           15    i.fputc             main.o
    0x08001358   0x0000001e   Code   RO           16    i.main              main.o
    0x08001376   0x00000002   PAD
    0x08001378   0x000000e8   Code   RO           17    i.mbedtls_aes_cbc_demo  main.o
    0x08001460   0x00000096   Code   RO         1753    i.mbedtls_aes_crypt_cbc  aes.o
    0x080014f6   0x00000018   Code   RO         1754    i.mbedtls_aes_crypt_ecb  aes.o
    0x0800150e   0x00000002   PAD
    0x08001510   0x000000ec   Code   RO           18    i.mbedtls_aes_ecb_demo  main.o
    0x080015fc   0x0000000e   Code   RO         1757    i.mbedtls_aes_free  aes.o
    0x0800160a   0x00000008   Code   RO         1758    i.mbedtls_aes_init  aes.o
    0x08001612   0x00000002   PAD
    0x08001614   0x000000c8   Code   RO         1759    i.mbedtls_aes_setkey_dec  aes.o
    0x080016dc   0x000001b0   Code   RO         1760    i.mbedtls_aes_setkey_enc  aes.o
    0x0800188c   0x0000013c   Code   RO         2112    i.mbedtls_base64_decode  base64.o
    0x080019c8   0x000000c4   Code   RO           19    i.mbedtls_base64_demo  main.o
    0x08001a8c   0x0000010c   Code   RO         2113    i.mbedtls_base64_encode  base64.o
    0x08001b98   0x000004aa   Code   RO         1761    i.mbedtls_internal_aes_decrypt  aes.o
    0x08002042   0x00000002   PAD
    0x08002044   0x000004aa   Code   RO         1762    i.mbedtls_internal_aes_encrypt  aes.o
    0x080024ee   0x00000002   PAD
    0x080024f0   0x00000014   Code   RO         3968    i.mbedtls_platform_zeroize  platform_util.o
    0x08002504   0x00000010   Data   RO         1719    .constdata          system_stm32f1xx.o
    0x08002514   0x00000008   Data   RO         1720    .constdata          system_stm32f1xx.o
    0x0800251c   0x000000c0   Data   RO         2114    .constdata          base64.o
    0x080025dc   0x00000020   Data   RO         6110    Region$$Table       anon$$obj.o


    Execution Region RW_IRAM1 (Base: 0x20000000, Size: 0x00003288, Max: 0x00005000, ABSOLUTE)

    Base Addr    Size         Type   Attr      Idx    E Section Name        Object

    0x20000000   0x0000000c   Data   RW          767    .data               stm32f1xx_hal.o
    0x2000000c   0x00000004   Data   RW         1721    .data               system_stm32f1xx.o
    0x20000010   0x00000004   Data   RW         1764    .data               aes.o
    0x20000014   0x00000004   Data   RW         3969    .data               platform_util.o
    0x20000018   0x00000004   Data   RW         6086    .data               mc_w.l(stdout.o)
    0x2000001c   0x00000040   Zero   RW          211    .bss                usart.o
    0x2000005c   0x00002228   Zero   RW         1763    .bss                aes.o
    0x20002284   0x00000004   PAD
    0x20002288   0x00001000   Zero   RW            1    STACK               startup_stm32f103xb.o


==============================================================================

Image component sizes


      Code (inc. data)   RO Data    RW Data    ZI Data      Debug   Object Name

      3652         52          0          4       8744      11170   aes.o
       584         12        192          0          0       2976   base64.o
        44          6          0          0          0        755   gpio.o
       798        260          0          0          0     399004   main.o
        20          4          0          4          0       1283   platform_util.o
        36          8        236          0       4096        792   startup_stm32f103xb.o
       128         24          0         12          0       5213   stm32f1xx_hal.o
       172         14          0          0          0      28226   stm32f1xx_hal_cortex.o
       480         34          0          0          0       2240   stm32f1xx_hal_gpio.o
        60          8          0          0          0        846   stm32f1xx_hal_msp.o
      1272        100          0          0          0       5116   stm32f1xx_hal_rcc.o
       282          6          0          0          0       1876   stm32f1xx_hal_uart.o
        20          0          0          0          0       3758   stm32f1xx_it.o
         2          0         24          4          0       1083   system_stm32f1xx.o
       168         20          0          0         64       1626   usart.o

    ----------------------------------------------------------------------
      7736        548        484         24      12908     465964   Object Totals
         0          0         32          0          0          0   (incl. Generated)
        18          0          0          0          4          0   (incl. Padding)

    ----------------------------------------------------------------------

      Code (inc. data)   RO Data    RW Data    ZI Data      Debug   Library Member Name

         0          0          0          0          0          0   entry.o
         0          0          0          0          0          0   entry10a.o
         0          0          0          0          0          0   entry11a.o
         8          4          0          0          0          0   entry2.o
         4          0          0          0          0          0   entry5.o
         0          0          0          0          0          0   entry7b.o
         0          0          0          0          0          0   entry8b.o
         8          4          0          0          0          0   entry9a.o
        30          0          0          0          0          0   handlers.o
        36          8          0          0          0         68   init.o
        30          0          0          0          0         68   llshl.o
        32          0          0          0          0         68   llushr.o
        64          0          0          0          0         76   memmovea.o
        36          0          0          0          0        108   memseta.o
      1154         54          0          0          0        352   printf8.o
         0          0          0          4          0          0   stdout.o
        98          0          0          0          0         92   uldiv.o

    ----------------------------------------------------------------------
      1504         70          0          4          0        832   Library Totals
         4          0          0          0          0          0   (incl. Padding)

    ----------------------------------------------------------------------

      Code (inc. data)   RO Data    RW Data    ZI Data      Debug   Library Name

      1500         70          0          4          0        832   mc_w.l

    ----------------------------------------------------------------------
      1504         70          0          4          0        832   Library Totals

    ----------------------------------------------------------------------

==============================================================================


      Code (inc. data)   RO Data    RW Data    ZI Data      Debug   

      9240        618        484         28      12908     464192   Grand Totals
      9240        618        484         28      12908     464192   ELF Image Totals
      9240        618        484         28          0          0   ROM Totals

==============================================================================

    Total RO  Size (Code + RO Data)                 9724 (   9.50kB)
    Total RW  Size (RW Data + ZI Data)             12936 (  12.63kB)
    Total ROM Size (Code + RO Data + RW Data)       9752 (   9.52kB)

==============================================================================

